:100000000C9462000C948A000C948A000C948A0070
:100010000C948A000C948A000C948A000C948A0038
:100020000C948A000C948A000C948A000C948A0028
:100030000C948A000C948A000C948A000C948A0018
:100040000C94B4030C948A000C9482030C945C030B
:100050000C948A000C948A000C948A000C948A00F8
:100060000C948A000C948A000000000024002700F1
:100070002A0000000000250028002B0000000008D6
:10008000000201000003040700000000000000005F
:1000900000000000230026002900040404040404D6
:1000A0000404020202020202030303030303010227
:1000B00004081020408001020408102001020408F6
:1000C0001020430411241FBECFEFD8E0DEBFCDBF08
:1000D00011E0A0E0B1E0EEEEF6E102C005900D9275
:1000E000AE37B107D9F722E0AEE7B1E001C01D920B
:1000F000AC3AB207E1F710E0C2E6D0E004C02197C5
:10010000FE010E94C908C136D107C9F70E94CC047C
:100110000C94750B0C940000E5E9F1E0A089B1891D
:1001200082E08C93A485B5851C92A685B7858FEC5B
:100130008C93108EA489B58986E08C93A289B389AB
:100140008C9180618C93A289B3898C9188608C9307
:10015000A289B3898C9180688C930288F389E02D01
:1001600080818F7D80830895CF92DF92EF92FF92FE
:100170000F931F93CF93DF936C017A018B01C0E043
:10018000D0E0CE15DF0589F0D8016D918D01D60143
:10019000ED91FC910190F081E02DC6010995892B2C
:1001A00011F47E0102C02196ECCFC701DF91CF91FF
:1001B0001F910F91FF90EF90DF90CF900895FC0179
:1001C000538D448D252F30E0842F90E0821B930BBC
:1001D000541710F0CF96089501970895FC01918D62
:1001E000828D981761F0828DDF01A80FB11D5D9699
:1001F0008C91928D9F5F9F73928F90E008958FEF07
:100200009FEF0895FC01918D828D981731F0828DBA
:10021000E80FF11D858D90E008958FEF9FEF089511
:10022000FC01918D228D892F90E0805C9F4F821B75
:1002300091098F739927089585E991E00E94100133
:1002400021E0892B09F420E0822F0895FC01848DA0
:10025000DF01A80FB11DA35ABF4F2C91848D90E0F0
:1002600001968F739927848FA689B7892C93A089CB
:10027000B1898C9180648C93938D848D981306C082
:100280000288F389E02D80818F7D80830895EF922D
:10029000FF920F931F93CF93DF93EC0181E0888F40
:1002A0009B8D8C8D981305C0E889F989808185FD27
:1002B00024C0F62E0B8D10E00F5F1F4F0F73112718
:1002C000E02E8C8DE8120CC00FB607FCFACFE8893F
:1002D000F989808185FFF5CFCE010E942601F1CFFB
:1002E0008B8DFE01E80FF11DE35AFF4FF0820B8F5B
:1002F000EA89FB898081806207C0EE89FF8960837B
:10030000E889F98980818064808381E090E0DF91D1
:10031000CF911F910F91FF90EF900895CF93DF93AE
:10032000EC01888D8823C9F0EA89FB89808185FDED
:1003300005C0A889B9898C9186FD0FC00FB607FC4E
:10034000F5CF808185FFF2CFA889B9898C9185FF8F
:10035000EDCFCE010E942601E7CFDF91CF91089526
:1003600080E090E0892B29F00E941C0181110C94FF
:100370000000089590E0FC01E458FF4F3491FC0127
:10038000E255FF4F2491FC01E656FF4FE491EE2326
:1003900009F43BC0332339F1333091F038F4313074
:1003A000A9F0323001F584B58F7D12C0373091F05D
:1003B0003830A1F03430B9F4809180008F7D03C0D3
:1003C000809180008F77809380000DC084B58F77F7
:1003D00084BD09C08091B0008F7703C08091B000C8
:1003E0008F7D8093B000F0E0EE0FFF1FEE58FF4FBF
:1003F000A591B4918FB7F894EC91611103C0209549
:100400002E2301C02E2B2C938FBF0895CF93DF9303
:1004100090E0FC01E255FF4F2491FC01E656FF4FAE
:100420008491882361F190E0880F991FFC01E859BD
:10043000FF4FC591D491FC01EE58FF4FA591B491A7
:10044000611109C09FB7F894888120958223888321
:10045000EC912E230BC0623061F49FB7F894388181
:10046000822F809583238883EC912E2B2C939FBF22
:1004700006C08FB7F894E8812E2B28838FBFDF91B9
:10048000CF9108953FB7F8948091830190918401B2
:10049000A0918501B091860126B5A89B05C02F3F8C
:1004A00019F00196A11DB11D3FBFBA2FA92F982F9A
:1004B0008827820F911DA11DB11DBC01CD0142E015
:1004C000660F771F881F991F4A95D1F708952FB798
:1004D000F89460917F0170918001809181019091E9
:1004E00082012FBF08958F929F92AF92BF92CF92B9
:1004F000DF92EF92FF926B017C010E9467024B0139
:100500005C01C60ED71EE81EF91E0E946702681520
:1005100079058A059B0528F0C616D706E806F90670
:10052000A0F7FF90EF90DF90CF90BF90AF909F909B
:100530008F900895089580E090E008956115710509
:1005400079F0FB0101900020E9F73197AF01461BDC
:10055000570BDC01ED91FC910280F381E02D0994B1
:1005600080E090E008954F925F926F927F92EF92B9
:10057000FF920F931F93CF93DF93CDB7DEB7A19771
:100580000FB6F894DEBF0FBECDBF7C01FA01CB01E0
:1005900019A2223008F42AE08E010F5D1F4F422E6F
:1005A000512C612C712CBF01A30192010E94C8073C
:1005B000F901CA01015011096A3014F4605D01C0EB
:1005C000695CD8016C93232B242B252B61F7B80190
:1005D000C7010E949E02A1960FB6F894DEBF0FBE1F
:1005E000CDBFDF91CF911F910F91FF90EF907F9042
:1005F0006F905F904F9008950F931F93CF93DF9369
:10060000EC010E949E028C0167E271E0CE010E9423
:100610009E02800F911FDF91CF911F910F9108953E
:100620008F929F92AF92BF92CF92DF92EF92FF9202
:100630000F931F93CF93DF937C01EB016C0182E05A
:10064000C80ED11C4701E5E08E0E911C00E010E0C1
:10065000F60141916F0150E060E070E02AE0CE01C8
:100660000E94B3025C01E881F9810190F081E02DE4
:100670006EE2CE0109958A0D9B1D080F191FC81443
:10068000D90431F7F701458150E060E070E02AE0DD
:10069000CE010E94B302800F911FDF91CF911F9175
:1006A0000F91FF90EF90DF90CF90BF90AF909F9011
:1006B0008F9008950E94CF081F920F920FB60F924D
:1006C00011242F933F934F935F936F937F938F9357
:1006D0009F93AF93BF93EF93FF9385E991E00E94BF
:1006E0002601FF91EF91BF91AF919F918F917F91E3
:1006F0006F915F914F913F912F910F900FBE0F908F
:100700001F9018951F920F920FB60F9211242F93DE
:100710008F939F93EF93FF93E091A501F091A60132
:100720008081E091AB01F091AC0182FD12C090811B
:100730008091AE018F5F8F732091AF01821751F0CE
:10074000E091AE01F0E0EB56FE4F958F8093AE0145
:1007500001C08081FF91EF919F918F912F910F9018
:100760000FBE0F901F9018951F920F920FB60F9209
:1007700011242F933F938F939F93AF93BF938091B7
:100780007F0190918001A0918101B091820130910F
:100790007E0123E0230F2D3720F40196A11DB11D0A
:1007A00005C026E8230F0296A11DB11D20937E01EE
:1007B00080937F0190938001A0938101B093820187
:1007C0008091830190918401A0918501B09186016F
:1007D0000196A11DB11D8093830190938401A09384
:1007E0008501B0938601BF91AF919F918F913F9109
:1007F0002F910F900FBE0F901F901895CF92DF9200
:10080000EF92FF920F931F93E82FF92F05C001502D
:1008100011092109310961F1908196239417B9F3E7
:1008200005C0015011092109310911F19081962368
:100830009413F7CFC12CD12CE12CF12C0AC08FEFEF
:10084000C81AD80AE80AF80A0C151D052E053F0536
:1008500079F080818623841791F36C2D7D2D8E2D68
:100860009F2D1F910F91FF90EF90DF90CF900895F3
:1008700060E070E080E090E01F910F91FF90EF90BA
:10088000DF90CF900895EFE8F1E086E191E0918369
:1008900080831282138214821582E5E9F1E01382CB
:1008A000128248EE53E060E070E044835583668333
:1008B000778324E031E03183208325EC30E03587F5
:1008C000248724EC30E03787268720EC30E0318B1A
:1008D000208B21EC30E0338B228B22EC30E0358B07
:1008E000248B26EC30E0378B268B118E128E138EE4
:1008F000148EE2E3F2E016821782108611861286C9
:1009000013861486158616861786108A118A128A0F
:10091000138A148A158AEAE7F2E0918380831282AF
:10092000138214821582E0E8F2E0918380831282C0
:10093000138214821582E6E8F2E0918380831282AA
:10094000138214821582E4E9F2E09183808312829B
:10095000138214821582ECE8F2E091838083128284
:10096000138214821582EAE9F2E091838083128275
:10097000138214821582E0EAF2E09183808312826E
:10098000138214821582E6EAF2E091838083128258
:100990001382148215820895CF93DF93CDB7DEB70B
:1009A000CA5CD1090FB6F894DEBF0FBECDBF7894F4
:1009B00084B5826084BD84B5816084BD85B5826064
:1009C00085BD85B5816085BD80916E008160809315
:1009D0006E0010928100809181008260809381007E
:1009E000809181008160809381008091800081608E
:1009F000809380008091B10084608093B1008091E9
:100A0000B00081608093B00080917A008460809310
:100A10007A0080917A00826080937A0080917A00D7
:100A2000816080937A0080917A00806880937A0058
:100A30001092C10010927602109277021092780202
:100A400010927902109234021092350210923602FE
:100A50001092370268EB7BE080E090E00E94730226
:100A600085E991E090937502809374020E948C0056
:100A70000E946702609334027093350280933602BD
:100A80009093370268E171E0809174029091750251
:100A90000E949E026AE070E080E090E00E94730293
:100AA00081E0809348020E948C0061E08CE00E940B
:100AB000060260E08DE00E94060261E084E00E9490
:100AC00006027E0129ECE20EF11C43E6242E5DE6CF
:100AD000352E6FE4C62E61E0D62E0E946702672B8A
:100AE000682B692B41F40E94670262307105810511
:100AF000910508F408C10E94670260938B0170930E
:100B00008C0180938D0190938E010091870110914B
:100B100088012091890130918A016017710782074D
:100B2000930740F460938701709388018093890153
:100B300090938A0100918701109188012091890189
:100B400030918A014B015C01801A910AA20AB30A12
:100B5000950184010A3F11052105310508F4D3C030
:100B600060938701709388018093890190938A0133
:100B700084EF91E0A0E0B0E08093400290934102C6
:100B8000A0934202B0934302109244021092450295
:100B900010924602109247028091380290913902D9
:100BA000A0913A02B0913B0280933C0290933D02A7
:100BB000A0933E02B0933F020E9467026093380206
:100BC0007093390280933A0290933B020E9467022D
:100BD000609334027093350280933602909337020B
:100BE0000E9467022B013C016AE271E0809174026D
:100BF000909175020E949E022AE041E050E060E080
:100C000070E080917402909175020E94B30261E3DA
:100C100071E080917402909175020E949E022AE018
:100C2000B301A20180917402909175020E94B302F7
:100C300063E371E080917402909175020E949E02BC
:100C40008091380290913902A0913A02B0913B0212
:100C5000B301A201481B590B6A0B7B0B2AE0809160
:100C60007402909175020E94B30263E371E0809177
:100C70007402909175020E949E0240913802509138
:100C8000390260913A0270913B0280913C0290914E
:100C90003D02A0913E02B0913F02481B590B6A0BE6
:100CA0007B0B2AE080917402909175020E94B3023E
:100CB00065E371E080917402909175020E949E023A
:100CC0000E946702AB01BC012AE0809174029091FE
:100CD00075020E94B30267E371E080917402909103
:100CE00075020E94FC0265E070E080E090E00E94E6
:100CF00073020E94670260933802709339028093F6
:100D00003A0290933B02D7012C9211963C9260E0FC
:100D100084E00E94BA0161E08CE00E94BA018BE895
:100D200091E00197F1F760E08CE00E94BA01EBEBF3
:100D3000F0E06491E7EAF0E08491E82FF0E0EE0F54
:100D4000FF1FE057FF4F8591949100E412E42FE0DC
:100D500030E0462F0E94FE03611571058105910563
:100D600039F0DC01CB010196A11DB11DBF7003C09C
:100D700080E090E0DC01182F092FBC0177FF02C052
:100D80006F5F7F4F75956795072E000C880B990B49
:100D90000E943C072DEC3CEC48EE51E40E942108F7
:100DA0000E9493082B013C01CB010197873C9105E0
:100DB00040F06EE371E085E991E00E94FC0260E0A2
:100DC00011C02AE0A201052C000C660B770B85E907
:100DD00091E00E94B3026BE471E085E991E00E942A
:100DE000FC0261E084E00E94BA01FF92EF925F9200
:100DF0004F920F931F93DF92CF9288248394912C6C
:100E00008C0E9D1E9F928F920E94D408B40185E99A
:100E100091E00E94FC020E9442024B015C010FB66D
:100E2000F894DEBF0FBECDBF94EF492E55245394E6
:100E3000612C712C0E944202DC01CB0188199909B6
:100E4000AA09BB09883E9340A105B10558F091E07D
:100E5000491A510861087108A8EE8A0EA3E09A1E8B
:100E6000A11CB11C411451046104710419F70E94C2
:100E7000B00133CEE89409C097FB3EF4909580957D
:100E8000709561957F4F8F4F9F4F9923A9F0F92F50
:100E900096E9BB279395F695879577956795B795CE
:100EA000F111F8CFFAF4BB0F11F460FF1BC06F5FB4
:100EB0007F4F8F4F9F4F16C0882311F096E911C0C6
:100EC000772321F09EE8872F762F05C0662371F0E7
:100ED00096E8862F70E060E02AF09A95660F771FFB
:100EE000881FDAF7880F9695879597F9089597F9EF
:100EF0009F6780E870E060E008959FEF80EC0895C0
:100F000000240A94161617061806090608950024E8
:100F10000A9412161306140605060895092E039462
:100F2000000C11F4882352F0BB0F40F4BF2B11F4D6
:100F300060FF04C06F5F7F4F8F4F9F4F089557FD35
:100F40009058440F551F59F05F3F71F04795880F37
:100F500097FB991F61F09F3F79F0879508951216CE
:100F600013061406551FF2CF4695F1DF08C016167A
:100F700017061806991FF1CF86957105610508942B
:100F80000895E894BB2766277727CB0197F9089542
:100F9000A1E21A2EAA1BBB1BFD010DC0AA1FBB1F7D
:100FA000EE1FFF1FA217B307E407F50720F0A21BEF
:100FB000B30BE40BF50B661F771F881F991F1A945C
:100FC00069F760957095809590959B01AC01BD0186
:100FD000CF0108952F923F924F925F926F927F922E
:100FE0008F929F92AF92BF92CF92DF92EF92FF9239
:100FF0000F931F93CF93DF93CDB7DEB7CA1BDB0BE5
:101000000FB6F894DEBF0FBECDBF09942A88398889
:1010100048885F846E847D848C849B84AA84B98490
:10102000C884DF80EE80FD800C811B81AA81B9819C
:10103000CE0FD11D0FB6F894DEBF0FBECDBFED01B0
:1010400008950E9435080C948E070E94870758F077
:101050000E94800740F029F45F3F29F00C94770745
:1010600051110C94C2070C947D070E949F0768F3EE
:101070009923B1F3552391F3951B550BBB27AA2751
:1010800062177307840738F09F5F5F4F220F331F8B
:10109000441FAA1FA9F335D00E2E3AF0E0E832D053
:1010A00091505040E695001CCAF72BD0FE2F29D056
:1010B000660F771F881FBB1F261737074807AB0728
:1010C000B0E809F0BB0B802DBF01FF2793585F4F9D
:1010D0003AF09E3F510578F00C9477070C94C207C4
:1010E0005F3FE4F3983ED4F3869577956795B7957F
:1010F000F7959F5FC9F7880F911D9695879597F98A
:101100000895E1E0660F771F881FBB1F6217730702
:101110008407BA0720F0621B730B840BBA0BEE1F17
:1011200088F7E09508950E949A086894B1110C948C
:10113000C20708950E94A70788F09F5798F0B92F1B
:101140009927B751B0F0E1F0660F771F881F991FFC
:101150001AF0BA95C9F714C0B13091F00E94C107D6
:10116000B1E008950C94C107672F782F8827B85FE6
:1011700039F0B93FCCF3869577956795B395D9F754
:101180003EF490958095709561957F4F8F4F9F4F5E
:101190000895EE0FFF1F0590F491E02D099481E072
:1011A00090E0F8940C94750BAEE0B0E0EAEDF8E056
:1011B0000C94F8070D891E8986E08C831A830983B5
:1011C0008FEF9FE79E838D83AE01475E5F4F6F89F0
:1011D000788DCE0101960E94F7082F813885F8019D
:1011E000E20FF31F10822E96E4E00C941408ACE09A
:1011F000B0E0EDEFF8E00C94EA077C016B018A01A6
:10120000FC0117821682838181FFBDC1CE01019648
:101210004C01F7019381F60193FD859193FF819134
:101220006F01882309F4ABC1853239F493FD8591B0
:1012300093FF81916F01853229F4B70190E00E94FC
:10124000DF0AE7CF512C312C20E02032A0F48B3282
:1012500069F030F4803259F0833269F420612CC097
:101260008D3239F0803339F4216026C02260246049
:1012700023C0286021C027FD27C030ED380F3A3049
:1012800078F426FF06C0FAE05F9E300D1124532E3D
:1012900013C08AE0389E300D1124332E20620CC01A
:1012A0008E3221F426FD6BC1206406C08C3611F409
:1012B000206802C0883641F4F60193FD859193FFC2
:1012C00081916F018111C1CF982F9F7D95549330EB
:1012D00028F40C5F1F4FFFE3F9830DC0833631F014
:1012E000833771F0833509F05BC022C0F80180813B
:1012F00089830E5F1F4F44244394512C540115C021
:101300003801F2E06F0E711CF801A080B18026FF59
:1013100003C0652D70E002C06FEF7FEFC5012C8721
:101320000E94D40A2C0183012C852F77222E17C00E
:101330003801F2E06F0E711CF801A080B18026FF29
:1013400003C0652D70E002C06FEF7FEFC5012C87F1
:101350000E94C90A2C012C852068222E830123FCBF
:101360001BC0832D90E048165906B0F4B70180E207
:1013700090E00E94DF0A3A94F4CFF50127FC8591B2
:1013800027FE81915F01B70190E00E94DF0A3110D2
:101390003A94F1E04F1A51084114510471F7E5C035
:1013A000843611F0893639F5F80127FF07C06081CE
:1013B0007181828193810C5F1F4F08C060817181B0
:1013C000072E000C880B990B0E5F1F4F2F76722E85
:1013D00097FF09C090958095709561957F4F8F4FCD
:1013E0009F4F2068722E2AE030E0A4010E94170B64
:1013F000A82EA81844C0853729F42F7EB22E2AE0E3
:1014000030E025C0F22FF97FBF2E8F36C1F018F4DF
:10141000883579F0B4C0803719F0883721F0AFC033
:101420002F2F2061B22EB4FE0DC08B2D8460B82EFC
:1014300009C024FF0AC09F2F9660B92E06C028E07D
:1014400030E005C020E130E002C020E132E0F801E8
:10145000B7FE07C060817181828193810C5F1F4F4D
:1014600006C06081718180E090E00E5F1F4FA40193
:101470000E94170BA82EA818FB2DFF777F2E76FE53
:101480000BC0372D3E7FA51450F474FE0AC072FCC9
:1014900008C0372D3E7E05C0BA2C372D03C0BA2CAC
:1014A00001C0B52C34FF0DC0FE01EA0DF11D808195
:1014B000803311F4397E09C032FF06C0B394B3946F
:1014C00004C0832F867809F0B39433FD13C030FF36
:1014D00006C05A2CB31418F4530C5B18B32CB31475
:1014E00068F4B70180E290E03C870E94DF0AB39481
:1014F0003C85F5CFB31410F43B1801C0312C34FFF8
:1015000012C0B70180E390E03C870E94DF0A3C856F
:1015100032FF17C031FD03C088E790E002C088E5C4
:1015200090E0B7010CC0832F867859F031FF02C0DC
:101530008BE201C080E237FD8DE2B70190E00E94AE
:10154000DF0AA51438F4B70180E390E00E94DF0AB7
:101550005A94F7CFAA94F401EA0DF11D8081B701E6
:1015600090E00E94DF0AA110F5CF332009F451CE9C
:10157000B70180E290E00E94DF0A3A94F6CFF701CB
:101580008681978102C08FEF9FEF2C96E2E10C9449
:101590000608FC010590615070400110D8F7809555
:1015A00090958E0F9F1F0895FC016150704001902F
:1015B0000110D8F7809590958E0F9F1F08950F9377
:1015C0001F93CF93DF93FB01238121FD03C08FEF96
:1015D0009FEF28C022FF16C04681578124813581A4
:1015E0004217530744F4A081B1819D012F5F3F4F03
:1015F000318320838C93268137812F5F3F4F378340
:10160000268310C0EB01092F182F0084F185E02DEF
:101610000995892BE1F68E819F8101969F838E83A8
:10162000812F902FDF91CF911F910F910895FA0193
:10163000AA27283051F1203181F1E8946F936E7F11
:101640006E5F7F4F8F4F9F4FAF4FB1E03ED0B4E002
:101650003CD0670F781F891F9A1FA11D680F791F43
:101660008A1F911DA11D6A0F711D811D911DA11D54
:1016700020D009F468943F912AE0269F1124301964
:10168000305D3193DEF6CF010895462F4770405DFF
:101690004193B3E00FD0C9F7F6CF462F4F70405DAE
:1016A0004A3318F0495D31FD4052419302D0A9F709
:1016B000EACFB4E0A6959795879577956795BA9503
:1016C000C9F700976105710508959B01AC010A2EC9
:1016D00006945795479537952795BA95C9F7620FA0
:0E16E000731F841F951FA01D0895F894FFCF5F
:1016EE00000000004701B400DF008E011001EE0083
:1016FE000201000000001003564D4450565F317C2D
:10170E00315F564D4450560D0A00564D4450455FBC
:10171E00003A323A007C005F564D445045004F75FA
:10172E0074206F662072616E67650020636D007BAA
:10173E00226475726174696F6E223A2022256422CA
:10174E002C202264697374223A20222564222C20D4
:0E175E0022756E6974223A20222573227D00C6
:107E0000112484B714BE81FFF0D085E080938100F7
:107E100082E08093C00088E18093C10086E0809377
:107E2000C20080E18093C4008EE0C9D0259A86E02C
:107E300020E33CEF91E0309385002093840096BBD3
:107E4000B09BFECF1D9AA8958150A9F7CC24DD24C4
:107E500088248394B5E0AB2EA1E19A2EF3E0BF2EE7
:107E6000A2D0813461F49FD0082FAFD0023811F036
:107E7000013811F484E001C083E08DD089C08234E0
:107E800011F484E103C0853419F485E0A6D080C0E4
:107E9000853579F488D0E82EFF2485D0082F10E0AE
:107EA000102F00270E291F29000F111F8ED06801E7
:107EB0006FC0863521F484E090D080E0DECF843638
:107EC00009F040C070D06FD0082F6DD080E0C81688
:107ED00080E7D80618F4F601B7BEE895C0E0D1E017
:107EE00062D089930C17E1F7F0E0CF16F0E7DF06D8
:107EF00018F0F601B7BEE89568D007B600FCFDCFD4
:107F0000A601A0E0B1E02C9130E011968C91119780
:107F100090E0982F8827822B932B1296FA010C0160
:107F200087BEE89511244E5F5F4FF1E0A038BF0790
:107F300051F7F601A7BEE89507B600FCFDCF97BE46
:107F4000E89526C08437B1F42ED02DD0F82E2BD052
:107F50003CD0F601EF2C8F010F5F1F4F84911BD097
:107F6000EA94F801C1F70894C11CD11CFA94CF0C13
:107F7000D11C0EC0853739F428D08EE10CD085E9AC
:107F80000AD08FE07ACF813511F488E018D01DD067
:107F900080E101D065CF982F8091C00085FFFCCF94
:107FA0009093C60008958091C00087FFFCCF809118
:107FB000C00084FD01C0A8958091C6000895E0E648
:107FC000F0E098E1908380830895EDDF803219F02E
:107FD00088E0F5DFFFCF84E1DECF1F93182FE3DFCA
:107FE0001150E9F7F2DF1F91089580E0E8DFEE27F6
:047FF000FF270994CA
:027FFE00040479
:0400000300007E007B
:00000001FF